{"abi":[{"type":"constructor","inputs":[],"stateMutability":"nonpayable"},{"type":"function","name":"approveReader","inputs":[{"name":"signalId","type":"uint256","internalType":"uint256"},{"name":"responseId","type":"uint256","internalType":"uint256"},{"name":"expiresAt","type":"uint64","internalType":"uint64"}],"outputs":[],"stateMutability":"nonpayable"},{"type":"function","name":"claimInviteCode","inputs":[{"name":"rawCode","type":"string","internalType":"string"}],"outputs":[{"name":"codeHash","type":"bytes32","internalType":"bytes32"}],"stateMutability":"nonpayable"},{"type":"function","name":"createSignal","inputs":[{"name":"parentSignalId","type":"uint256","internalType":"uint256"},{"name":"hintCID","type":"string","internalType":"string"},{"name":"encryptedContentCID","type":"string","internalType":"string"},{"name":"question","type":"string","internalType":"string"},{"name":"tags","type":"string[]","internalType":"string[]"}],"outputs":[{"name":"signalId","type":"uint256","internalType":"uint256"}],"stateMutability":"nonpayable"},{"type":"function","name":"createSignalWithVisibility","inputs":[{"name":"parentSignalId","type":"uint256","internalType":"uint256"},{"name":"hintCID","type":"string","internalType":"string"},{"name":"encryptedContentCID","type":"string","internalType":"string"},{"name":"question","type":"string","internalType":"string"},{"name":"tags","type":"string[]","internalType":"string[]"},{"name":"visibility","type":"uint8","internalType":"enum SemaphoreProtocol.SignalVisibility"}],"outputs":[{"name":"signalId","type":"uint256","internalType":"uint256"}],"stateMutability":"nonpayable"},{"type":"function","name":"deactivateSignal","inputs":[{"name":"signalId","type":"uint256","internalType":"uint256"}],"outputs":[],"stateMutability":"nonpayable"},{"type":"function","name":"fulfillInviteRequest","inputs":[{"name":"requestId","type":"uint256","internalType":"uint256"},{"name":"codeHash","type":"bytes32","internalType":"bytes32"},{"name":"expiresAt","type":"uint64","internalType":"uint64"}],"outputs":[],"stateMutability":"nonpayable"},{"type":"function","name":"getEcho","inputs":[{"name":"echoId","type":"uint256","internalType":"uint256"}],"outputs":[{"name":"","type":"tuple","internalType":"struct SemaphoreProtocol.Echo","components":[{"name":"id","type":"uint256","internalType":"uint256"},{"name":"signalId","type":"uint256","internalType":"uint256"},{"name":"sender","type":"address","internalType":"address"},{"name":"destination","type":"uint8","internalType":"enum SemaphoreProtocol.EchoDestination"},{"name":"echoCID","type":"string","internalType":"string"},{"name":"createdAt","type":"uint64","internalType":"uint64"}]}],"stateMutability":"view"},{"type":"function","name":"getEchoesForSignal","inputs":[{"name":"signalId","type":"uint256","internalType":"uint256"}],"outputs":[{"name":"","type":"uint256[]","internalType":"uint256[]"}],"stateMutability":"view"},{"type":"function","name":"getInviteCode","inputs":[{"name":"codeHash","type":"bytes32","internalType":"bytes32"}],"outputs":[{"name":"","type":"tuple","internalType":"struct SemaphoreProtocol.InviteCode","components":[{"name":"issuer","type":"address","internalType":"address"},{"name":"expiresAt","type":"uint64","internalType":"uint64"},{"name":"claimedBy","type":"address","internalType":"address"},{"name":"exists","type":"bool","internalType":"bool"}]}],"stateMutability":"view"},{"type":"function","name":"getInviteIdForResponse","inputs":[{"name":"responseId","type":"uint256","internalType":"uint256"}],"outputs":[{"name":"","type":"uint256","internalType":"uint256"}],"stateMutability":"view"},{"type":"function","name":"getInviteReply","inputs":[{"name":"inviteId","type":"uint256","internalType":"uint256"}],"outputs":[{"name":"","type":"tuple","internalType":"struct SemaphoreProtocol.InviteReply","components":[{"name":"inviteId","type":"uint256","internalType":"uint256"},{"name":"replier","type":"address","internalType":"address"},{"name":"replyType","type":"uint8","internalType":"enum SemaphoreProtocol.ReplyType"},{"name":"replyCID","type":"string","internalType":"string"},{"name":"createdAt","type":"uint64","internalType":"uint64"},{"name":"exists","type":"bool","internalType":"bool"}]}],"stateMutability":"view"},{"type":"function","name":"getInviteRequest","inputs":[{"name":"requestId","type":"uint256","internalType":"uint256"}],"outputs":[{"name":"","type":"tuple","internalType":"struct SemaphoreProtocol.InviteRequest","components":[{"name":"id","type":"uint256","internalType":"uint256"},{"name":"requester","type":"address","internalType":"address"},{"name":"requestCID","type":"string","internalType":"string"},{"name":"createdAt","type":"uint64","internalType":"uint64"},{"name":"fulfilled","type":"bool","internalType":"bool"}]}],"stateMutability":"view"},{"type":"function","name":"getInviteRequestsByRequester","inputs":[{"name":"requester","type":"address","internalType":"address"}],"outputs":[{"name":"","type":"uint256[]","internalType":"uint256[]"}],"stateMutability":"view"},{"type":"function","name":"getReadInvite","inputs":[{"name":"inviteId","type":"uint256","internalType":"uint256"}],"outputs":[{"name":"","type":"tuple","internalType":"struct SemaphoreProtocol.ReadInvite","components":[{"name":"id","type":"uint256","internalType":"uint256"},{"name":"signalId","type":"uint256","internalType":"uint256"},{"name":"from","type":"address","internalType":"address"},{"name":"to","type":"address","internalType":"address"},{"name":"excerptCID","type":"string","internalType":"string"},{"name":"createdAt","type":"uint64","internalType":"uint64"},{"name":"source","type":"uint8","internalType":"enum SemaphoreProtocol.InviteSource"},{"name":"replied","type":"bool","internalType":"bool"}]}],"stateMutability":"view"},{"type":"function","name":"getReadInvitesForRecipient","inputs":[{"name":"recipient","type":"address","internalType":"address"}],"outputs":[{"name":"","type":"uint256[]","internalType":"uint256[]"}],"stateMutability":"view"},{"type":"function","name":"getResponse","inputs":[{"name":"responseId","type":"uint256","internalType":"uint256"}],"outputs":[{"name":"","type":"tuple","internalType":"struct SemaphoreProtocol.Response","components":[{"name":"id","type":"uint256","internalType":"uint256"},{"name":"signalId","type":"uint256","internalType":"uint256"},{"name":"reader","type":"address","internalType":"address"},{"name":"responseCID","type":"string","internalType":"string"},{"name":"createdAt","type":"uint64","internalType":"uint64"},{"name":"approved","type":"bool","internalType":"bool"},{"name":"accessExpiresAt","type":"uint64","internalType":"uint64"}]}],"stateMutability":"view"},{"type":"function","name":"getResponsesByReader","inputs":[{"name":"reader","type":"address","internalType":"address"}],"outputs":[{"name":"","type":"uint256[]","internalType":"uint256[]"}],"stateMutability":"view"},{"type":"function","name":"getResponsesForAuthor","inputs":[{"name":"author","type":"address","internalType":"address"}],"outputs":[{"name":"","type":"uint256[]","internalType":"uint256[]"}],"stateMutability":"view"},{"type":"function","name":"getResponsesForSignal","inputs":[{"name":"signalId","type":"uint256","internalType":"uint256"}],"outputs":[{"name":"","type":"uint256[]","internalType":"uint256[]"}],"stateMutability":"view"},{"type":"function","name":"getSentReadInvites","inputs":[{"name":"sender","type":"address","internalType":"address"}],"outputs":[{"name":"","type":"uint256[]","internalType":"uint256[]"}],"stateMutability":"view"},{"type":"function","name":"getSignal","inputs":[{"name":"signalId","type":"uint256","internalType":"uint256"}],"outputs":[{"name":"id","type":"uint256","internalType":"uint256"},{"name":"author","type":"address","internalType":"address"},{"name":"parentSignalId","type":"uint256","internalType":"uint256"},{"name":"hintCID","type":"string","internalType":"string"},{"name":"encryptedContentCID","type":"string","internalType":"string"},{"name":"question","type":"string","internalType":"string"},{"name":"tags","type":"string[]","internalType":"string[]"},{"name":"createdAt","type":"uint64","internalType":"uint64"},{"name":"blockNumber","type":"uint64","internalType":"uint64"},{"name":"active","type":"bool","internalType":"bool"}],"stateMutability":"view"},{"type":"function","name":"getSignalChildren","inputs":[{"name":"signalId","type":"uint256","internalType":"uint256"}],"outputs":[{"name":"","type":"uint256[]","internalType":"uint256[]"}],"stateMutability":"view"},{"type":"function","name":"getSignalVisibility","inputs":[{"name":"signalId","type":"uint256","internalType":"uint256"}],"outputs":[{"name":"","type":"uint8","internalType":"enum SemaphoreProtocol.SignalVisibility"}],"stateMutability":"view"},{"type":"function","name":"getSignalsByAuthor","inputs":[{"name":"author","type":"address","internalType":"address"}],"outputs":[{"name":"","type":"uint256[]","internalType":"uint256[]"}],"stateMutability":"view"},{"type":"function","name":"hasActiveAccess","inputs":[{"name":"signalId","type":"uint256","internalType":"uint256"},{"name":"reader","type":"address","internalType":"address"}],"outputs":[{"name":"","type":"bool","internalType":"bool"}],"stateMutability":"view"},{"type":"function","name":"hashInviteCode","inputs":[{"name":"rawCode","type":"string","internalType":"string"}],"outputs":[{"name":"","type":"bytes32","internalType":"bytes32"}],"stateMutability":"pure"},{"type":"function","name":"isMember","inputs":[{"name":"","type":"address","internalType":"address"}],"outputs":[{"name":"","type":"bool","internalType":"bool"}],"stateMutability":"view"},{"type":"function","name":"issueInviteCode","inputs":[{"name":"codeHash","type":"bytes32","internalType":"bytes32"},{"name":"expiresAt","type":"uint64","internalType":"uint64"}],"outputs":[],"stateMutability":"nonpayable"},{"type":"function","name":"joinNetwork","inputs":[],"outputs":[],"stateMutability":"nonpayable"},{"type":"function","name":"memberSince","inputs":[{"name":"","type":"address","internalType":"address"}],"outputs":[{"name":"","type":"uint64","internalType":"uint64"}],"stateMutability":"view"},{"type":"function","name":"nextEchoId","inputs":[],"outputs":[{"name":"","type":"uint256","internalType":"uint256"}],"stateMutability":"view"},{"type":"function","name":"nextInviteRequestId","inputs":[],"outputs":[{"name":"","type":"uint256","internalType":"uint256"}],"stateMutability":"view"},{"type":"function","name":"nextReadInviteId","inputs":[],"outputs":[{"name":"","type":"uint256","internalType":"uint256"}],"stateMutability":"view"},{"type":"function","name":"nextResponseId","inputs":[],"outputs":[{"name":"","type":"uint256","internalType":"uint256"}],"stateMutability":"view"},{"type":"function","name":"nextSignalId","inputs":[],"outputs":[{"name":"","type":"uint256","internalType":"uint256"}],"stateMutability":"view"},{"type":"function","name":"owner","inputs":[],"outputs":[{"name":"","type":"address","internalType":"address"}],"stateMutability":"view"},{"type":"function","name":"replyToInvite","inputs":[{"name":"inviteId","type":"uint256","internalType":"uint256"},{"name":"replyType","type":"uint8","internalType":"enum SemaphoreProtocol.ReplyType"},{"name":"replyCID","type":"string","internalType":"string"}],"outputs":[{"name":"signalId","type":"uint256","internalType":"uint256"}],"stateMutability":"nonpayable"},{"type":"function","name":"requestInvite","inputs":[{"name":"requestCID","type":"string","internalType":"string"}],"outputs":[{"name":"requestId","type":"uint256","internalType":"uint256"}],"stateMutability":"nonpayable"},{"type":"function","name":"sendReadInvite","inputs":[{"name":"signalId","type":"uint256","internalType":"uint256"},{"name":"recipient","type":"address","internalType":"address"},{"name":"excerptCID","type":"string","internalType":"string"}],"outputs":[{"name":"inviteId","type":"uint256","internalType":"uint256"}],"stateMutability":"nonpayable"},{"type":"function","name":"setEncryptedContentCID","inputs":[{"name":"signalId","type":"uint256","internalType":"uint256"},{"name":"encryptedContentCID","type":"string","internalType":"string"}],"outputs":[],"stateMutability":"nonpayable"},{"type":"function","name":"submitEcho","inputs":[{"name":"signalId","type":"uint256","internalType":"uint256"},{"name":"destination","type":"uint8","internalType":"enum SemaphoreProtocol.EchoDestination"},{"name":"echoCID","type":"string","internalType":"string"}],"outputs":[{"name":"echoId","type":"uint256","internalType":"uint256"}],"stateMutability":"nonpayable"},{"type":"function","name":"submitResponse","inputs":[{"name":"signalId","type":"uint256","internalType":"uint256"},{"name":"responseCID","type":"string","internalType":"string"}],"outputs":[{"name":"responseId","type":"uint256","internalType":"uint256"}],"stateMutability":"nonpayable"},{"type":"event","name":"EchoSubmitted","inputs":[{"name":"echoId","type":"uint256","indexed":true,"internalType":"uint256"},{"name":"signalId","type":"uint256","indexed":true,"internalType":"uint256"},{"name":"sender","type":"address","indexed":true,"internalType":"address"},{"name":"destination","type":"uint8","indexed":false,"internalType":"enum SemaphoreProtocol.EchoDestination"}],"anonymous":false},{"type":"event","name":"InviteCodeClaimed","inputs":[{"name":"codeHash","type":"bytes32","indexed":true,"internalType":"bytes32"},{"name":"claimer","type":"address","indexed":true,"internalType":"address"}],"anonymous":false},{"type":"event","name":"InviteCodeIssued","inputs":[{"name":"codeHash","type":"bytes32","indexed":true,"internalType":"bytes32"},{"name":"issuer","type":"address","indexed":true,"internalType":"address"},{"name":"expiresAt","type":"uint64","indexed":false,"internalType":"uint64"}],"anonymous":false},{"type":"event","name":"InviteRequestCreated","inputs":[{"name":"requestId","type":"uint256","indexed":true,"internalType":"uint256"},{"name":"requester","type":"address","indexed":true,"internalType":"address"},{"name":"requestCID","type":"string","indexed":false,"internalType":"string"}],"anonymous":false},{"type":"event","name":"InviteRequestFulfilled","inputs":[{"name":"requestId","type":"uint256","indexed":true,"internalType":"uint256"},{"name":"codeHash","type":"bytes32","indexed":true,"internalType":"bytes32"},{"name":"fulfiller","type":"address","indexed":true,"internalType":"address"}],"anonymous":false},{"type":"event","name":"MemberJoined","inputs":[{"name":"member","type":"address","indexed":true,"internalType":"address"},{"name":"joinedAt","type":"uint64","indexed":false,"internalType":"uint64"}],"anonymous":false},{"type":"event","name":"ReadInviteReplied","inputs":[{"name":"inviteId","type":"uint256","indexed":true,"internalType":"uint256"},{"name":"replier","type":"address","indexed":true,"internalType":"address"},{"name":"replyType","type":"uint8","indexed":false,"internalType":"enum SemaphoreProtocol.ReplyType"},{"name":"replyCID","type":"string","indexed":false,"internalType":"string"}],"anonymous":false},{"type":"event","name":"ReadInviteSent","inputs":[{"name":"inviteId","type":"uint256","indexed":true,"internalType":"uint256"},{"name":"signalId","type":"uint256","indexed":true,"internalType":"uint256"},{"name":"from","type":"address","indexed":true,"internalType":"address"},{"name":"to","type":"address","indexed":false,"internalType":"address"},{"name":"source","type":"uint8","indexed":false,"internalType":"enum SemaphoreProtocol.InviteSource"}],"anonymous":false},{"type":"event","name":"ReaderApproved","inputs":[{"name":"signalId","type":"uint256","indexed":true,"internalType":"uint256"},{"name":"responseId","type":"uint256","indexed":true,"internalType":"uint256"},{"name":"reader","type":"address","indexed":true,"internalType":"address"},{"name":"expiresAt","type":"uint64","indexed":false,"internalType":"uint64"}],"anonymous":false},{"type":"event","name":"ResponseSubmitted","inputs":[{"name":"responseId","type":"uint256","indexed":true,"internalType":"uint256"},{"name":"signalId","type":"uint256","indexed":true,"internalType":"uint256"},{"name":"reader","type":"address","indexed":true,"internalType":"address"}],"anonymous":false},{"type":"event","name":"SignalContentUpdated","inputs":[{"name":"signalId","type":"uint256","indexed":true,"internalType":"uint256"},{"name":"author","type":"address","indexed":true,"internalType":"address"},{"name":"encryptedContentCID","type":"string","indexed":false,"internalType":"string"}],"anonymous":false},{"type":"event","name":"SignalCreated","inputs":[{"name":"signalId","type":"uint256","indexed":true,"internalType":"uint256"},{"name":"author","type":"address","indexed":true,"internalType":"address"},{"name":"parentSignalId","type":"uint256","indexed":true,"internalType":"uint256"},{"name":"visibility","type":"uint8","indexed":false,"internalType":"enum SemaphoreProtocol.SignalVisibility"}],"anonymous":false},{"type":"event","name":"SignalDeactivated","inputs":[{"name":"signalId","type":"uint256","indexed":true,"internalType":"uint256"},{"name":"author","type":"address","indexed":true,"internalType":"address"}],"anonymous":false},{"type":"error","name":"AccessDenied","inputs":[]},{"type":"error","name":"CannotRespondToOwnSignal","inputs":[]},{"type":"error","name":"EmptyValue","inputs":[]},{"type":"error","name":"InvalidExpiry","inputs":[]},{"type":"error","name":"InvalidReadInvite","inputs":[]},{"type":"error","name":"InvalidResponse","inputs":[]},{"type":"error","name":"InvalidSignal","inputs":[]},{"type":"error","name":"InviteAlreadyReplied","inputs":[]},{"type":"error","name":"InviteCodeAlreadyClaimed","inputs":[]},{"type":"error","name":"InviteCodeExpired","inputs":[]},{"type":"error","name":"InviteCodeNotFound","inputs":[]},{"type":"error","name":"InviteRequestAlreadyFulfilled","inputs":[]},{"type":"error","name":"SignalInactive","inputs":[]},{"type":"error","name":"Unauthorized","inputs":[]}],"bytecode":{"object":"0x60a060405260015f5560018055600160025560016003556001600455348015610026575f80fd5b503360808190525f8181526005602090815260408083208054600160ff199091161790556006909152812080546001600160401b031916426001600160401b0316179055613f44906100aa90395f81816104da015281816107170152818161098401528181611181015281816119f801528181611dc201526121320152613f445ff3fe608060405234801561000f575f80fd5b5060043610610255575f3560e01c8063a70800a411610140578063ce4f23ab116100bf578063e6d74f0a11610084578063e6d74f0a1461067f578063eaee6da81461069f578063f036768b146106b2578063f499924b146106c5578063f77f58f9146106d8578063f8626fbd146106f8575f80fd5b8063ce4f23ab1461061d578063ce6cb63c14610626578063dc9e684914610639578063dfb8407a1461064c578063e5e6d1951461065f575f80fd5b8063b0c3b8ef11610105578063b0c3b8ef146105b8578063b151d83a146105c1578063b33c23f7146105e1578063bf18e43d146105f4578063bf70023d14610614575f80fd5b8063a70800a414610559578063a7dbf9361461056c578063a987e63e1461057f578063ae202bad14610592578063aecd5bd8146105a5575f80fd5b80635862b602116101d757806375a9d0dd1161019c57806375a9d0dd1461047a578063828e58e21461049957806387dd5ddc146104c25780638da5cb5b146104d5578063928f214414610514578063a230c52414610527575f80fd5b80635862b6021461040e5780635ebce2021461042157806367af8eb91461043457806370c1819914610447578063724e6c3d14610467575f80fd5b806332ef341a1161021d57806332ef341a146102fb5780633d941a17146103035780633dae01b814610318578063560dd9f314610320578063572db2fb146103fb575f80fd5b80630d4691701461025957806319760f371461029e5780631cf50fd3146102bf57806329ea9ecf146102d25780632b254ca0146102f2575b5f80fd5b6102816102673660046132f0565b60066020525f90815260409020546001600160401b031681565b6040516001600160401b0390911681526020015b60405180910390f35b6102b16102ac366004613394565b61070b565b604051908152602001610295565b6102b16102cd366004613459565b61082d565b6102e56102e03660046132f0565b610910565b60405161029591906134ae565b6102b160045481565b6102b15f5481565b610316610311366004613507565b610979565b005b610316610a8e565b6103b261032e366004613539565b604080516080810182525f808252602082018190529181018290526060810191909152505f90815260076020908152604091829020825160808101845281546001600160a01b0380821683526001600160401b03600160a01b9283900416948301949094526001909201549283169381019390935260ff9104161515606082015290565b6040805182516001600160a01b0390811682526020808501516001600160401b031690830152838301511691810191909152606091820151151591810191909152608001610295565b610316610409366004613507565b610b19565b6102b161041c366004613550565b610d9a565b6102e561042f366004613539565b610f48565b6102e56104423660046132f0565b610fa5565b61045a610455366004613539565b61100c565b60405161029591906135d1565b6102b1610475366004613665565b611175565b6102b1610488366004613539565b5f9081526016602052604090205490565b6104ac6104a7366004613539565b611465565b6040516102959a9998979695949392919061368a565b6103166104d0366004613539565b61178c565b6104fc7f000000000000000000000000000000000000000000000000000000000000000081565b6040516001600160a01b039091168152602001610295565b61031661052236600461376b565b611861565b6105496105353660046132f0565b60056020525f908152604090205460ff1681565b6040519015158152602001610295565b6102e5610567366004613539565b61198f565b6102b161057a36600461376b565b6119ec565b6102e561058d3660046132f0565b611cf2565b6102e56105a0366004613539565b611d59565b6102b16105b33660046137b2565b611db6565b6102b160015481565b6105d46105cf366004613539565b611ed9565b60405161029591906138a9565b6102e56105ef3660046132f0565b611f1b565b610607610602366004613539565b611f82565b60405161029591906138c9565b6102b160035481565b6102b160025481565b610316610634366004613963565b612127565b6102b1610647366004613550565b612196565b6102e561065a3660046132f0565b6121b7565b61067261066d366004613539565b61221e565b604051610295919061398d565b61069261068d366004613539565b612339565b60405161029591906139ef565b6102b16106ad366004613550565b6124a9565b6102e56106c03660046132f0565b6125e8565b6105496106d3366004613a64565b61264f565b6106eb6106e6366004613539565b612684565b6040516102959190613a95565b6102b1610706366004613b0a565b6127f8565b5f336001600160a01b037f00000000000000000000000000000000000000000000000000000000000000001614806107515750335f9081526005602052604090205460ff165b61076d576040516282b42960e81b815260040160405180910390fd5b61081f8a8a8a8080601f0160208091040260200160405190810160405280939291908181526020018383808284375f9201919091525050604080516020601f8e018190048102820181019092528c815292508c91508b90819084018382808284375f9201919091525050604080516020601f8d018190048102820181019092528b815292508b91508a90819084018382808284375f9201919091525061081992508991508a9050613b76565b5f612b4d565b9a9950505050505050505050565b5f848152600a602052604081208054869190830361085e576040516328f7decb60e21b815260040160405180910390fd5b60018101546001600160a01b0316331461088a576040516282b42960e81b815260040160405180910390fd5b5f878152600a602052604090206007810154600160881b900460ff166108c357604051632565d37d60e01b815260040160405180910390fd5b61090488338989898080601f0160208091040260200160405190810160405280939291908181526020018383808284375f9201829052509250612dfa915050565b98975050505050505050565b6001600160a01b0381165f908152600b602090815260409182902080548351818402810184019094528084526060939283018282801561096d57602002820191905f5260205f20905b815481526020019060010190808311610959575b50505050509050919050565b336001600160a01b037f00000000000000000000000000000000000000000000000000000000000000001614806109be5750335f9081526005602052604090205460ff165b6109da576040516282b42960e81b815260040160405180910390fd5b5f8381526008602052604081208054909103610a0957604051631356769d60e21b815260040160405180910390fd5b6003810154600160401b900460ff1615610a36576040516308e5573d60e01b815260040160405180910390fd5b610a40838361301c565b60038101805468ff00000000000000001916600160401b1790556040513390849086907f48842303ff49220376995220eeb296c83a14bcf66d2145886a008b1fac8dd5fd905f90a450505050565b335f9081526005602052604090205460ff16610b1757335f818152600560209081526040808320805460ff19166001179055600682529182902080546001600160401b03421667ffffffffffffffff19909116811790915591519182527f844b6351be77efc14ed2b27a1024b7365383d1471f4c4307aeea9ce801cbab9d910160405180910390a25b565b5f838152600a602052604081208054859203610b48576040516328f7decb60e21b815260040160405180910390fd5b60018101546001600160a01b03163314610b74576040516282b42960e81b815260040160405180910390fd5b42836001600160401b031611610b9c5760405162d36c8560e81b815260040160405180910390fd5b5f858152600a602052604090206007810154600160881b900460ff16610bd557604051632565d37d60e01b815260040160405180910390fd5b5f858152600d6020526040902080541580610bf4575086816001015414155b15610c125760405163c715138d60e01b815260040160405180910390fd5b6004810180546001600160401b038716600160481b810270ffffffffffffffffff00000000000000001990921691909117600160401b179091555f8881526011602090815260408083206002860180546001600160a01b03908116865291845293829020805467ffffffffffffffff191686179055925490519384529091169188918a917f52f09d081241cc4040dcaddf409ac1b138f1a90cd795500a9779bfabeb0f52fa910160405180910390a45f868152601660205260408120549003610d915760028101546003830180545f92610d81928b9233926001600160a01b03169190610cfe90613c41565b80601f0160208091040260200160405190810160405280929190818152602001828054610d2a90613c41565b8015610d755780601f10610d4c57610100808354040283529160200191610d75565b820191905f5260205f20905b815481529060010190602001808311610d5857829003601f168201915b50505050506001612dfa565b5f88815260166020526040902055505b50505050505050565b5f610dd983838080601f0160208091040260200160405190810160405280939291908181526020018383808284375f920191909152506130dd92505050565b5f80549080610de783613c79565b9190505590506040518060a00160405280828152602001336001600160a01b0316815260200184848080601f0160208091040260200160405190810160405280939291908181526020018383808284375f920182905250938552505050426001600160401b03166020808401919091526040928301829052848252600881529082902083518155908301516001820180546001600160a01b0319166001600160a01b03909216919091179055908201516002820190610ea69082613ce9565b506060820151600390910180546080909301511515600160401b0268ffffffffffffffffff199093166001600160401b0390921691909117919091179055335f818152600960209081526040808320805460018101825590845291909220018390555182907f7b932a7ef3d96e4237c37a55ace0744608cf9d5eaf0ec429fc315381cfe6588e90610f3a9087908790613dd0565b60405180910390a392915050565b5f818152600e602090815260409182902080548351818402810184019094528084526060939283018282801561096d57602002820191905f5260205f20908154815260200190600101908083116109595750505050509050919050565b6001600160a01b0381165f9081526009602090815260409182902080548351818402810184019094528084526060939283018282801561096d57602002820191905f5260205f20908154815260200190600101908083116109595750505050509050919050565b6040805160e0810182525f808252602082018190529181018290526060808201526080810182905260a0810182905260c08101919091525f828152600d60209081526040808320815160e0810183528154815260018201549381019390935260028101546001600160a01b03169183019190915260038101805460608401919061109590613c41565b80601f01602080910402602001604051908101604052809291908181526020018280546110c190613c41565b801561110c5780601f106110e35761010080835404028352916020019161110c565b820191905f5260205f20905b8154815290600101906020018083116110ef57829003601f168201915b5050509183525050600491909101546001600160401b03808216602084015260ff600160401b83041615156040840152600160481b9091041660609091015280519091505f0361116f5760405163c715138d60e01b815260040160405180910390fd5b92915050565b5f336001600160a01b037f00000000000000000000000000000000000000000000000000000000000000001614806111bb5750335f9081526005602052604090205460ff165b6111d7576040516282b42960e81b815260040160405180910390fd5b5f858152600a602052604081208054909103611206576040516328f7decb60e21b815260040160405180910390fd5b6007810154600160881b900460ff1661123257604051632565d37d60e01b815260040160405180910390fd5b61127084848080601f0160208091040260200160405190810160405280939291908181526020018383808284375f920191909152506130dd92505050565b60018101545f906001600160a01b03163314806112925750611292873361264f565b9050806112b257604051634ca8886760e01b815260040160405180910390fd5b60048054905f6112c183613c79565b9190505592506040518060c00160405280848152602001888152602001336001600160a01b031681526020018760018111156112ff576112ff613885565b815260200186868080601f0160208091040260200160405190810160405280939291908181526020018383808284375f9201829052509385525050506001600160401b034216602092830152858152601782526040908190208351815591830151600180840191909155908301516002830180546001600160a01b039092166001600160a01b031983168117825560608601519391926001600160a81b0319161790600160a01b9084908111156113b8576113b8613885565b0217905550608082015160038201906113d19082613ce9565b5060a091909101516004909101805467ffffffffffffffff19166001600160401b039092169190911790555f87815260186020908152604080832080546001810182559084529190922001849055513390889085907f5f25b0241e05976aa95c351a26763fe8dd3590805c06eea5bf67780a49f772bd90611453908b906138a9565b60405180910390a45050949350505050565b5f805f6060806060805f805f80600a5f8d81526020019081526020015f209050805f01545f036114a8576040516328f7decb60e21b815260040160405180910390fd5b80546001820154600283015460078401546003850180546001600160a01b039094169390916004870191600588019160068901916001600160401b0380831692600160401b810490911691600160881b90910460ff1690879061150a90613c41565b80601f016020809104026020016040519081016040528092919081815260200182805461153690613c41565b80156115815780601f1061155857610100808354040283529160200191611581565b820191905f5260205f20905b81548152906001019060200180831161156457829003601f168201915b5050505050965085805461159490613c41565b80601f01602080910402602001604051908101604052809291908181526020018280546115c090613c41565b801561160b5780601f106115e25761010080835404028352916020019161160b565b820191905f5260205f20905b8154815290600101906020018083116115ee57829003601f168201915b5050505050955084805461161e90613c41565b80601f016020809104026020016040519081016040528092919081815260200182805461164a90613c41565b80156116955780601f1061166c57610100808354040283529160200191611695565b820191905f5260205f20905b81548152906001019060200180831161167857829003601f168201915b5050505050945083805480602002602001604051908101604052809291908181526020015f905b82821015611764578382905f5260205f200180546116d990613c41565b80601f016020809104026020016040519081016040528092919081815260200182805461170590613c41565b80156117505780601f1061172757610100808354040283529160200191611750565b820191905f5260205f20905b81548152906001019060200180831161173357829003601f168201915b5050505050815260200190600101906116bc565b5050505093509a509a509a509a509a509a509a509a509a509a50509193959799509193959799565b5f818152600a6020526040812080548392036117bb576040516328f7decb60e21b815260040160405180910390fd5b60018101546001600160a01b031633146117e7576040516282b42960e81b815260040160405180910390fd5b5f838152600a602052604090206007810154600160881b900460ff1661182057604051632565d37d60e01b815260040160405180910390fd5b60078101805460ff60881b19169055604051339085907f86a8b8be8cbd00d0eeb0b340c0efbfa540e36bc16b67e32969b173fcaf698087905f90a350505050565b5f838152600a602052604081208054859203611890576040516328f7decb60e21b815260040160405180910390fd5b60018101546001600160a01b031633146118bc576040516282b42960e81b815260040160405180910390fd5b5f858152600a602052604090206007810154600160881b900460ff166118f557604051632565d37d60e01b815260040160405180910390fd5b61193385858080601f0160208091040260200160405190810160405280939291908181526020018383808284375f920191909152506130dd92505050565b60048101611942858783613de3565b50336001600160a01b0316867f94f46df3a4ffba44e007ec5e1b27aecd38471c485ba83647af202b47ac2628ba878760405161197f929190613dd0565b60405180910390a3505050505050565b5f818152600c602090815260409182902080548351818402810184019094528084526060939283018282801561096d57602002820191905f5260205f20908154815260200190600101908083116109595750505050509050919050565b5f336001600160a01b037f0000000000000000000000000000000000000000000000000000000000000000161480611a325750335f9081526005602052604090205460ff165b611a4e576040516282b42960e81b815260040160405180910390fd5b5f848152600a602052604081208054909103611a7d576040516328f7decb60e21b815260040160405180910390fd5b6007810154600160881b900460ff16611aa957604051632565d37d60e01b815260040160405180910390fd5b6001810154336001600160a01b0390911603611ad857604051638e7f559160e01b815260040160405180910390fd5b611b1684848080601f0160208091040260200160405190810160405280939291908181526020018383808284375f920191909152506130dd92505050565b60028054905f611b2583613c79565b9190505591506040518060e00160405280838152602001868152602001336001600160a01b0316815260200185858080601f0160208091040260200160405190810160405280939291908181526020018383808284375f920182905250938552505050426001600160401b031660208084019190915260408084018390526060938401839052868352600d82529182902084518155908401516001820155908301516002820180546001600160a01b0319166001600160a01b03909216919091179055908201516003820190611bfb9082613ce9565b5060808201516004909101805460a084015160c0909401516001600160401b03908116600160481b0270ffffffffffffffff00000000000000000019951515600160401b0268ffffffffffffffffff19909316919094161717929092161790555f858152600e602090815260408083208054600181810183559185528385200186905533808552600f84528285208054808401825590865284862001879055858201546001600160a01b031685526010845282852080549283018155855292842001859055519091879185917f79dffca789220a3114d14bef0ff9e32106498669adbb7dd9705958caf8d3740b91a4509392505050565b6001600160a01b0381165f9081526013602090815260409182902080548351818402810184019094528084526060939283018282801561096d57602002820191905f5260205f20908154815260200190600101908083116109595750505050509050919050565b5f8181526018602090815260409182902080548351818402810184019094528084526060939283018282801561096d57602002820191905f5260205f20908154815260200190600101908083116109595750505050509050919050565b5f336001600160a01b037f0000000000000000000000000000000000000000000000000000000000000000161480611dfc5750335f9081526005602052604090205460ff165b611e18576040516282b42960e81b815260040160405180910390fd5b611eca8b8b8b8080601f0160208091040260200160405190810160405280939291908181526020018383808284375f9201919091525050604080516020601f8f018190048102820181019092528d815292508d91508c90819084018382808284375f9201919091525050604080516020601f8e018190048102820181019092528c815292508c91508b90819084018382808284375f92019190915250611ec492508a91508b9050613b76565b87612b4d565b9b9a5050505050505050505050565b5f818152600a6020526040812080548203611f07576040516328f7decb60e21b815260040160405180910390fd5b60070154600160801b900460ff1692915050565b6001600160a01b0381165f908152600f602090815260409182902080548351818402810184019094528084526060939283018282801561096d57602002820191905f5260205f20908154815260200190600101908083116109595750505050509050919050565b60408051610100810182525f808252602082018190529181018290526060808201839052608082015260a0810182905260c0810182905260e08101919091525f8281526012602090815260408083208151610100810183528154815260018201549381019390935260028101546001600160a01b03908116928401929092526003810154909116606083015260048101805460808401919061202390613c41565b80601f016020809104026020016040519081016040528092919081815260200182805461204f90613c41565b801561209a5780601f106120715761010080835404028352916020019161209a565b820191905f5260205f20905b81548152906001019060200180831161207d57829003601f168201915b505050918352505060058201546001600160401b0381166020830152604090910190600160401b900460ff1660018111156120d7576120d7613885565b60018111156120e8576120e8613885565b815260059190910154600160481b900460ff16151560209091015280519091505f0361116f576040516396340beb60e01b815260040160405180910390fd5b336001600160a01b037f000000000000000000000000000000000000000000000000000000000000000016148061216c5750335f9081526005602052604090205460ff165b612188576040516282b42960e81b815260040160405180910390fd5b612192828261301c565b5050565b5f82826040516121a7929190613e9c565b6040518091039020905092915050565b6001600160a01b0381165f9081526014602090815260409182902080548351818402810184019094528084526060939283018282801561096d57602002820191905f5260205f20908154815260200190600101908083116109595750505050509050919050565b6040805160a080820183525f808352602080840182905260608486018190528401829052608084018290528582526008815290849020845192830185528054835260018101546001600160a01b03169183019190915260028101805493949293919284019161228c90613c41565b80601f01602080910402602001604051908101604052809291908181526020018280546122b890613c41565b80156123035780601f106122da57610100808354040283529160200191612303565b820191905f5260205f20905b8154815290600101906020018083116122e657829003601f168201915b5050509183525050600391909101546001600160401b0381166020830152600160401b900460ff16151560409091015292915050565b6040805160c0810182525f808252602082018190529181018290526060808201839052608082015260a08101919091525f828152601760209081526040808320815160c081018352815481526001808301549482019490945260028201546001600160a01b038116938201939093529290916060840191600160a01b90910460ff16908111156123cb576123cb613885565b60018111156123dc576123dc613885565b81526020016003820180546123f090613c41565b80601f016020809104026020016040519081016040528092919081815260200182805461241c90613c41565b80156124675780601f1061243e57610100808354040283529160200191612467565b820191905f5260205f20905b81548152906001019060200180831161244a57829003601f168201915b5050509183525050600491909101546001600160401b031660209091015280519091505f0361116f5760405163c715138d60e01b815260040160405180910390fd5b5f82826040516124ba929190613e9c565b60408051918290039091205f818152600760205291909120600181015491925090600160a01b900460ff1661250257604051631356769d60e21b815260040160405180910390fd5b60018101546001600160a01b03161561252e5760405163ae161a2d60e01b815260040160405180910390fd5b805442600160a01b9091046001600160401b031610156125615760405163b5f24f5f60e01b815260040160405180910390fd5b60018181018054336001600160a01b031990911681179091555f818152600560209081526040808320805460ff191690951790945560069052828120805467ffffffffffffffff1916426001600160401b03161790559151909184917f9735e66270b0ae5e2c200f9ac512dac0d39d983aa6e1d9040d5d9a8d1d6ab8659190a35092915050565b6001600160a01b0381165f9081526010602090815260409182902080548351818402810184019094528084526060939283018282801561096d57602002820191905f5260205f20908154815260200190600101908083116109595750505050509050919050565b5f9182526011602090815260408084206001600160a01b03939093168452919052902054426001600160401b03909116101590565b6040805160c0810182525f808252602082018190529181018290526060808201526080810182905260a08101919091525f828152601560209081526040808320815160c0810183528154815260018201546001600160a01b03811694820194909452929091830190600160a01b900460ff16600281111561270757612707613885565b600281111561271857612718613885565b815260200160028201805461272c90613c41565b80601f016020809104026020016040519081016040528092919081815260200182805461275890613c41565b80156127a35780601f1061277a576101008083540402835291602001916127a3565b820191905f5260205f20905b81548152906001019060200180831161278657829003601f168201915b5050509183525050600391909101546001600160401b0381166020830152600160401b900460ff16151560409091015260a081015190915061116f576040516396340beb60e01b815260040160405180910390fd5b5f84815260126020526040812080548203612826576040516396340beb60e01b815260040160405180910390fd5b60038101546001600160a01b03163314612852576040516282b42960e81b815260040160405180910390fd5b6005810154600160481b900460ff161561287f57604051631601e32560e31b815260040160405180910390fd5b6128bd84848080601f0160208091040260200160405190810160405280939291908181526020018383808284375f920191909152506130dd92505050565b60058101805460ff60481b1916600160481b1790556040805160c0810182528781523360208201529081018660028111156128fa576128fa613885565b815260200185858080601f0160208091040260200160405190810160405280939291908181526020018383808284375f920182905250938552505050426001600160401b0316602080840191909152600160409384018190528a83526015825291839020845181559084015191810180546001600160a01b031981166001600160a01b039094169384178255938501519193919290916001600160a81b03191617600160a01b8360028111156129b2576129b2613885565b0217905550606082015160028201906129cb9082613ce9565b5060808201516003909101805460a0909301511515600160401b0268ffffffffffffffffff199093166001600160401b0390921691909117919091179055604051339087907f9135ee51780fba1df5efab59be6d81f355a490d91b2993acea2ef5878b61a96090612a4190899089908990613eab565b60405180910390a36002856002811115612a5d57612a5d613885565b03612adc57604080515f8082526020820190925281612a8c565b6060815260200190600190039081612a775790505b509050612ad4826001015486868080601f0160208091040260200160405190810160405280939291908181526020018383808284375f92019190915250869250613101915050565b925050612b44565b6001810154612b4290335f886002811115612af957612af9613885565b14612b05576001612b07565b5f5b87878080601f0160208091040260200160405190810160405280939291908181526020018383808284375f9201919091525061314d92505050565b505b50949350505050565b5f612b57866130dd565b612b60856130dd565b612b69846130dd565b8615612c0f575f878152600a602052604081208054909103612b9e576040516328f7decb60e21b815260040160405180910390fd5b6007810154600160881b900460ff16612bca57604051632565d37d60e01b815260040160405180910390fd5b60018101545f906001600160a01b0316331480612bec5750612bec893361264f565b905080612c0c57604051634ca8886760e01b815260040160405180910390fd5b50505b60018054905f612c1e83613c79565b909155505f818152600a602052604090208181556001810180546001600160a01b031916331790556002810189905590915060038101612c5e8882613ce9565b5060048101612c6d8782613ce9565b5060058101612c7c8682613ce9565b50600781018054436001600160401b03908116600160401b026fffffffffffffffffffffffffffffffff199092164291909116171780825584919060ff60801b1916600160801b836001811115612cd557612cd5613885565b021790555060078101805460ff60881b1916600160881b1790555f5b8451811015612d6357612d1c858281518110612d0f57612d0f613ed4565b60200260200101516130dd565b81600601858281518110612d3257612d32613ed4565b60209081029190910181015182546001810184555f938452919092200190612d5a9082613ce9565b50600101612cf1565b50335f908152600b60209081526040822080546001810182559083529120018290558715612dac575f888152600c60209081526040822080546001810182559083529120018290555b87336001600160a01b0316837f9e81f5c4e5b7f2c2fd389be19914433f4bc8abcfbc78fda40c00e53ed38d34a686604051612de791906138a9565b60405180910390a4509695505050505050565b5f6001600160a01b038416612e21576040516282b42960e81b815260040160405180910390fd5b612e2a836130dd565b60038054905f612e3983613c79565b919050559050604051806101000160405280828152602001878152602001866001600160a01b03168152602001856001600160a01b03168152602001848152602001426001600160401b03168152602001836001811115612e9c57612e9c613885565b81525f602091820181905283815260128252604090819020835181559183015160018301558201516002820180546001600160a01b039283166001600160a01b031991821617909155606084015160038401805491909316911617905560808201516004820190612f0d9082613ce9565b5060a08201516005820180546001600160401b0390921667ffffffffffffffff1983168117825560c08501519268ffffffffffffffffff191617600160401b836001811115612f5e57612f5e613885565b021790555060e0919091015160059091018054911515600160481b0260ff60481b199092169190911790556001600160a01b038085165f90815260136020908152604080832080546001818101835591855283852001869055938916808452601483528184208054958601815584529190922090920183905551879083907f6c6ca5d750fa1b18fd7c6c77fb5e5651e9e2ebb0231b3b467d73488bd89d248c9061300b9089908890613ee8565b60405180910390a495945050505050565b42816001600160401b0316116130445760405162d36c8560e81b815260040160405180910390fd5b5f8281526007602090815260409182902080546001600160e01b0319163367ffffffffffffffff60a01b19811691909117600160a01b6001600160401b0387168181029290921784556001840180546001600160a81b031916909117905593519384529092909185917fbab92d87652d9f856c10685431049451361328b5418487568a783cd4731ba372910160405180910390a3505050565b80515f036130fe57604051631208b21b60e01b815260040160405180910390fd5b50565b5f6131458484856040518060400160405280601981526020017f446572697665642066726f6d20696e76697465207265706c7900000000000000815250865f612b4d565b949350505050565b600480545f918261315d83613c79565b9190505590506040518060c00160405280828152602001868152602001856001600160a01b0316815260200184600181111561319b5761319b613885565b815260208082018590526001600160401b0342166040928301525f848152601782528290208351815590830151600180830191909155918301516002820180546001600160a01b039092166001600160a01b03198316811782556060860151939491926001600160a81b0319161790600160a01b90849081111561322157613221613885565b02179055506080820151600382019061323a9082613ce9565b5060a091909101516004909101805467ffffffffffffffff19166001600160401b039092169190911790555f85815260186020908152604080832080546001810182559084529190922001829055516001600160a01b03851690869083907f5f25b0241e05976aa95c351a26763fe8dd3590805c06eea5bf67780a49f772bd906132c59088906138a9565b60405180910390a4949350505050565b80356001600160a01b03811681146132eb575f80fd5b919050565b5f60208284031215613300575f80fd5b613309826132d5565b9392505050565b5f8083601f840112613320575f80fd5b5081356001600160401b03811115613336575f80fd5b60208301915083602082850101111561334d575f80fd5b9250929050565b5f8083601f840112613364575f80fd5b5081356001600160401b0381111561337a575f80fd5b6020830191508360208260051b850101111561334d575f80fd5b5f805f805f805f805f60a08a8c0312156133ac575f80fd5b8935985060208a01356001600160401b03808211156133c9575f80fd5b6133d58d838e01613310565b909a50985060408c01359150808211156133ed575f80fd5b6133f98d838e01613310565b909850965060608c0135915080821115613411575f80fd5b61341d8d838e01613310565b909650945060808c0135915080821115613435575f80fd5b506134428c828d01613354565b915080935050809150509295985092959850929598565b5f805f806060858703121561346c575f80fd5b8435935061347c602086016132d5565b925060408501356001600160401b03811115613496575f80fd5b6134a287828801613310565b95989497509550505050565b602080825282518282018190525f9190848201906040850190845b818110156134e5578351835292840192918401916001016134c9565b50909695505050505050565b80356001600160401b03811681146132eb575f80fd5b5f805f60608486031215613519575f80fd5b8335925060208401359150613530604085016134f1565b90509250925092565b5f60208284031215613549575f80fd5b5035919050565b5f8060208385031215613561575f80fd5b82356001600160401b03811115613576575f80fd5b61358285828601613310565b90969095509350505050565b5f81518084525f5b818110156135b257602081850181015186830182015201613596565b505f602082860101526020601f19601f83011685010191505092915050565b60208152815160208201526020820151604082015260018060a01b0360408301511660608201525f606083015160e0608084015261361361010084018261358e565b905060808401516001600160401b0380821660a086015260a0860151151560c08601528060c08701511660e086015250508091505092915050565b600281106130fe575f80fd5b80356132eb8161364e565b5f805f8060608587031215613678575f80fd5b84359350602085013561347c8161364e565b5f6101408c8352602060018060a01b038d16818501528b60408501528160608501526136b88285018c61358e565b915083820360808501526136cc828b61358e565b915083820360a08501526136e0828a61358e565b915083820360c08501528188518084528284019150828160051b850101838b015f5b8381101561373057601f1987840301855261371e83835161358e565b94860194925090850190600101613702565b50506001600160401b038a1660e0880152945061374d9350505050565b6001600160401b038416610100830152821515610120830152611eca565b5f805f6040848603121561377d575f80fd5b8335925060208401356001600160401b03811115613799575f80fd5b6137a586828701613310565b9497909650939450505050565b5f805f805f805f805f8060c08b8d0312156137cb575f80fd5b8a35995060208b01356001600160401b03808211156137e8575f80fd5b6137f48e838f01613310565b909b50995060408d013591508082111561380c575f80fd5b6138188e838f01613310565b909950975060608d0135915080821115613830575f80fd5b61383c8e838f01613310565b909750955060808d0135915080821115613854575f80fd5b506138618d828e01613354565b9094509250613874905060a08c0161365a565b90509295989b9194979a5092959850565b634e487b7160e01b5f52602160045260245ffd5b600281106130fe576130fe613885565b602081016138b683613899565b91905290565b6138c581613899565b9052565b6020815281516020820152602082015160408201525f604083015160018060a01b038082166060850152806060860151166080850152505060808301516101008060a085015261391d61012085018361358e565b915060a085015161393960c08601826001600160401b03169052565b5060c085015161394c60e08601826138bc565b5060e0850151801515858301525090949350505050565b5f8060408385031215613974575f80fd5b82359150613984602084016134f1565b90509250929050565b602081528151602082015260018060a01b0360208301511660408201525f604083015160a060608401526139c460c084018261358e565b90506001600160401b0360608501511660808401526080840151151560a08401528091505092915050565b60208152815160208201526020820151604082015260018060a01b0360408301511660608201525f6060830151613a2581613899565b80608084015250608083015160c060a0840152613a4560e084018261358e565b90506001600160401b0360a08501511660c08401528091505092915050565b5f8060408385031215613a75575f80fd5b82359150613984602084016132d5565b600381106138c5576138c5613885565b602081528151602082015260018060a01b0360208301511660408201525f6040830151613ac56060840182613a85565b50606083015160c06080840152613adf60e084018261358e565b90506001600160401b0360808501511660a084015260a0840151151560c08401528091505092915050565b5f805f8060608587031215613b1d575f80fd5b8435935060208501356003811061347c575f80fd5b634e487b7160e01b5f52604160045260245ffd5b604051601f8201601f191681016001600160401b0381118282101715613b6e57613b6e613b32565b604052919050565b5f6001600160401b0380841115613b8f57613b8f613b32565b8360051b6020613ba0818301613b46565b868152918501918181019036841115613bb7575f80fd5b865b84811015613c3557803586811115613bcf575f80fd5b8801601f3681830112613be0575f80fd5b813588811115613bf257613bf2613b32565b613c03818301601f19168801613b46565b91508082523687828501011115613c18575f80fd5b80878401888401375f908201870152845250918301918301613bb9565b50979650505050505050565b600181811c90821680613c5557607f821691505b602082108103613c7357634e487b7160e01b5f52602260045260245ffd5b50919050565b5f60018201613c9657634e487b7160e01b5f52601160045260245ffd5b5060010190565b601f821115613ce457805f5260205f20601f840160051c81016020851015613cc25750805b601f840160051c820191505b81811015613ce1575f8155600101613cce565b50505b505050565b81516001600160401b03811115613d0257613d02613b32565b613d1681613d108454613c41565b84613c9d565b602080601f831160018114613d49575f8415613d325750858301515b5f19600386901b1c1916600185901b178555613da0565b5f85815260208120601f198616915b82811015613d7757888601518255948401946001909101908401613d58565b5085821015613d9457878501515f19600388901b60f8161c191681555b505060018460011b0185555b505050505050565b81835281816020850137505f828201602090810191909152601f909101601f19169091010190565b602081525f613145602083018486613da8565b6001600160401b03831115613dfa57613dfa613b32565b613e0e83613e088354613c41565b83613c9d565b5f601f841160018114613e3f575f8515613e285750838201355b5f19600387901b1c1916600186901b178355613ce1565b5f83815260208120601f198716915b82811015613e6e5786850135825560209485019460019092019101613e4e565b5086821015613e8a575f1960f88860031b161c19848701351681555b505060018560011b0183555050505050565b818382375f9101908152919050565b613eb58185613a85565b604060208201525f613ecb604083018486613da8565b95945050505050565b634e487b7160e01b5f52603260045260245ffd5b6001600160a01b038316815260408101613f0183613899565b826020830152939250505056fea26469706673582212207806f237a1f4ad618985e602b4d0cd28a22b69c1580a8a772a384a71c8d55b3064736f6c63430008180033","linkReferences":{}},"methodIdentifiers":{"approveReader(uint256,uint256,uint64)":"572db2fb","claimInviteCode(string)":"eaee6da8","createSignal(uint256,string,string,string,string[])":"19760f37","createSignalWithVisibility(uint256,string,string,string,string[],uint8)":"aecd5bd8","deactivateSignal(uint256)":"87dd5ddc","fulfillInviteRequest(uint256,bytes32,uint64)":"3d941a17","getEcho(uint256)":"e6d74f0a","getEchoesForSignal(uint256)":"ae202bad","getInviteCode(bytes32)":"560dd9f3","getInviteIdForResponse(uint256)":"75a9d0dd","getInviteReply(uint256)":"f77f58f9","getInviteRequest(uint256)":"e5e6d195","getInviteRequestsByRequester(address)":"67af8eb9","getReadInvite(uint256)":"bf18e43d","getReadInvitesForRecipient(address)":"a987e63e","getResponse(uint256)":"70c18199","getResponsesByReader(address)":"b33c23f7","getResponsesForAuthor(address)":"f036768b","getResponsesForSignal(uint256)":"5ebce202","getSentReadInvites(address)":"dfb8407a","getSignal(uint256)":"828e58e2","getSignalChildren(uint256)":"a70800a4","getSignalVisibility(uint256)":"b151d83a","getSignalsByAuthor(address)":"29ea9ecf","hasActiveAccess(uint256,address)":"f499924b","hashInviteCode(string)":"dc9e6849","isMember(address)":"a230c524","issueInviteCode(bytes32,uint64)":"ce6cb63c","joinNetwork()":"3dae01b8","memberSince(address)":"0d469170","nextEchoId()":"2b254ca0","nextInviteRequestId()":"32ef341a","nextReadInviteId()":"bf70023d","nextResponseId()":"ce4f23ab","nextSignalId()":"b0c3b8ef","owner()":"8da5cb5b","replyToInvite(uint256,uint8,string)":"f8626fbd","requestInvite(string)":"5862b602","sendReadInvite(uint256,address,string)":"1cf50fd3","setEncryptedContentCID(uint256,string)":"928f2144","submitEcho(uint256,uint8,string)":"724e6c3d","submitResponse(uint256,string)":"a7dbf936"},"id":2}